{
  "contractName": "CredentialManagement",
  "abi": [
    {
      "constant": false,
      "inputs": [
        {
          "name": "uDid",
          "type": "string"
        },
        {
          "name": "iDid",
          "type": "string"
        },
        {
          "name": "cid",
          "type": "string"
        },
        {
          "name": "ciid",
          "type": "string"
        }
      ],
      "name": "register",
      "outputs": [
        {
          "name": "",
          "type": "string"
        }
      ],
      "payable": false,
      "stateMutability": "nonpayable",
      "type": "function"
    },
    {
      "constant": true,
      "inputs": [
        {
          "name": "cid",
          "type": "string"
        },
        {
          "name": "uDid",
          "type": "string"
        }
      ],
      "name": "getVC",
      "outputs": [
        {
          "components": [
            {
              "name": "id",
              "type": "string"
            },
            {
              "name": "iid",
              "type": "string"
            },
            {
              "name": "owner",
              "type": "string"
            },
            {
              "name": "issuer",
              "type": "string"
            }
          ],
          "name": "",
          "type": "tuple"
        }
      ],
      "payable": false,
      "stateMutability": "view",
      "type": "function"
    },
    {
      "constant": false,
      "inputs": [
        {
          "name": "cid",
          "type": "string"
        },
        {
          "name": "iDid",
          "type": "string"
        }
      ],
      "name": "revoke",
      "outputs": [],
      "payable": false,
      "stateMutability": "nonpayable",
      "type": "function"
    }
  ],
  "bytecode": "0x608060405234801561001057600080fd5b506111c5806100206000396000f3fe608060405234801561001057600080fd5b506004361061005e576000357c01000000000000000000000000000000000000000000000000000000009004806306ceefa3146100635780630e24c52c1461009357806310b40f85146100c3575b600080fd5b61007d60048036036100789190810190610ba9565b6100df565b60405161008a919061104b565b60405180910390f35b6100ad60048036036100a89190810190610c15565b610606565b6040516100ba9190610f92565b60405180910390f35b6100dd60048036036100d89190810190610ba9565b6107ad565b005b6100e7610a4b565b818373__DIDUtils______________________________6344dd41e76000836040516101139190610f7b565b9081526020016040518091039020600201846040518363ffffffff167c010000000000000000000000000000000000000000000000000000000002815260040161015e929190610fb4565b60206040518083038186803b15801561017657600080fd5b505af415801561018a573d6000803e3d6000fd5b505050506040513d601f19601f820116820180604052506101ae9190810190610b80565b8061027a575073__DIDUtils______________________________6344dd41e76000836040516101de9190610f7b565b9081526020016040518091039020600301846040518363ffffffff167c0100000000000000000000000000000000000000000000000000000000028152600401610229929190610fb4565b60206040518083038186803b15801561024157600080fd5b505af4158015610255573d6000803e3d6000fd5b505050506040513d601f19601f820116820180604052506102799190810190610b80565b5b6102b9576040517f08c379a00000000000000000000000000000000000000000000000000000000081526004016102b090610feb565b60405180910390fd5b84600160028111156102c757fe5b6001826040516102d79190610f7b565b908152602001604051809103902060009054906101000a900460ff1660028111156102fe57fe5b1461033e576040517f08c379a00000000000000000000000000000000000000000000000000000000081526004016103359061102b565b60405180910390fd5b610346610a4b565b6000876040516103569190610f7b565b9081526020016040518091039020604051806080016040529081600082018054600181600116156101000203166002900480601f0160208091040260200160405190810160405280929190818152602001828054600181600116156101000203166002900480156104085780601f106103dd57610100808354040283529160200191610408565b820191906000526020600020905b8154815290600101906020018083116103eb57829003601f168201915b50505050508152602001600182018054600181600116156101000203166002900480601f0160208091040260200160405190810160405280929190818152602001828054600181600116156101000203166002900480156104aa5780601f1061047f576101008083540402835291602001916104aa565b820191906000526020600020905b81548152906001019060200180831161048d57829003601f168201915b50505050508152602001600282018054600181600116156101000203166002900480601f01602080910402602001604051908101604052809291908181526020018280546001816001161561010002031660029004801561054c5780601f106105215761010080835404028352916020019161054c565b820191906000526020600020905b81548152906001019060200180831161052f57829003601f168201915b50505050508152602001600382018054600181600116156101000203166002900480601f0160208091040260200160405190810160405280929190818152602001828054600181600116156101000203166002900480156105ee5780601f106105c3576101008083540402835291602001916105ee565b820191906000526020600020905b8154815290600101906020018083116105d157829003601f168201915b50505050508152505090508094505050505092915050565b6060826000600281111561061657fe5b6001826040516106269190610f7b565b908152602001604051809103902060009054906101000a900460ff16600281111561064d57fe5b1461068d576040517f08c379a00000000000000000000000000000000000000000000000000000000081526004016106849061100b565b60405180910390fd5b8360008560405161069e9190610f7b565b908152602001604051809103902060000190805190602001906106c2929190610a73565b50826000856040516106d49190610f7b565b908152602001604051809103902060010190805190602001906106f8929190610a73565b508560008560405161070a9190610f7b565b9081526020016040518091039020600201908051906020019061072e929190610a73565b50846000856040516107409190610f7b565b90815260200160405180910390206003019080519060200190610764929190610a73565b50600180856040516107769190610f7b565b908152602001604051809103902060006101000a81548160ff0219169083600281111561079f57fe5b021790555050949350505050565b808273__DIDUtils______________________________6344dd41e76000836040516107d99190610f7b565b9081526020016040518091039020600201846040518363ffffffff167c0100000000000000000000000000000000000000000000000000000000028152600401610824929190610fb4565b60206040518083038186803b15801561083c57600080fd5b505af4158015610850573d6000803e3d6000fd5b505050506040513d601f19601f820116820180604052506108749190810190610b80565b80610940575073__DIDUtils______________________________6344dd41e76000836040516108a49190610f7b565b9081526020016040518091039020600301846040518363ffffffff167c01000000000000000000000000000000000000000000000000000000000281526004016108ef929190610fb4565b60206040518083038186803b15801561090757600080fd5b505af415801561091b573d6000803e3d6000fd5b505050506040513d601f19601f8201168201806040525061093f9190810190610b80565b5b61097f576040517f08c379a000000000000000000000000000000000000000000000000000000000815260040161097690610feb565b60405180910390fd5b836001600281111561098d57fe5b60018260405161099d9190610f7b565b908152602001604051809103902060009054906101000a900460ff1660028111156109c457fe5b14610a04576040517f08c379a00000000000000000000000000000000000000000000000000000000081526004016109fb9061102b565b60405180910390fd5b6002600186604051610a169190610f7b565b908152602001604051809103902060006101000a81548160ff02191690836002811115610a3f57fe5b02179055505050505050565b6040518060800160405280606081526020016060815260200160608152602001606081525090565b828054600181600116156101000203166002900490600052602060002090601f016020900481019282601f10610ab457805160ff1916838001178555610ae2565b82800160010185558215610ae2579182015b82811115610ae1578251825591602001919060010190610ac6565b5b509050610aef9190610af3565b5090565b610b1591905b80821115610b11576000816000905550600101610af9565b5090565b90565b6000610b24825161112c565b905092915050565b600082601f830112610b3d57600080fd5b8135610b50610b4b8261109a565b61106d565b91508082526020830160208301858383011115610b6c57600080fd5b610b77838284611138565b50505092915050565b600060208284031215610b9257600080fd5b6000610ba084828501610b18565b91505092915050565b60008060408385031215610bbc57600080fd5b600083013567ffffffffffffffff811115610bd657600080fd5b610be285828601610b2c565b925050602083013567ffffffffffffffff811115610bff57600080fd5b610c0b85828601610b2c565b9150509250929050565b60008060008060808587031215610c2b57600080fd5b600085013567ffffffffffffffff811115610c4557600080fd5b610c5187828801610b2c565b945050602085013567ffffffffffffffff811115610c6e57600080fd5b610c7a87828801610b2c565b935050604085013567ffffffffffffffff811115610c9757600080fd5b610ca387828801610b2c565b925050606085013567ffffffffffffffff811115610cc057600080fd5b610ccc87828801610b2c565b91505092959194509250565b6000610ce3826110e3565b610ced81856110ff565b9350610cfd818560208601611147565b610d068161117a565b840191505092915050565b6000610d1c826110e3565b610d268185611110565b9350610d36818560208601611147565b610d3f8161117a565b840191505092915050565b6000610d55826110e3565b610d5f8185611121565b9350610d6f818560208601611147565b80840191505092915050565b6000610d86826110d8565b610d9081856110ee565b9350610da0818560208601611147565b610da98161117a565b840191505092915050565b600081546001811660008114610dd15760018114610df757610e3b565b607f6002830416610de28187611110565b955060ff198316865260208601935050610e3b565b60028204610e058187611110565b9550610e10856110c6565b60005b82811015610e3257815481890152600182019150602081019050610e13565b80880195505050505b505092915050565b6000610e50600d836110ff565b91507f4e6f7420546865204f776e6572000000000000000000000000000000000000006000830152602082019050919050565b6000610e906017836110ff565b91507f416c72656164792045786973747320446f63756d656e740000000000000000006000830152602082019050919050565b6000610ed06016836110ff565b91507f5643204e6f6e65206f72204465616374697661746564000000000000000000006000830152602082019050919050565b60006080830160008301518482036000860152610f208282610d7b565b91505060208301518482036020860152610f3a8282610d7b565b91505060408301518482036040860152610f548282610d7b565b91505060608301518482036060860152610f6e8282610d7b565b9150508091505092915050565b6000610f878284610d4a565b915081905092915050565b60006020820190508181036000830152610fac8184610cd8565b905092915050565b60006040820190508181036000830152610fce8185610db4565b90508181036020830152610fe28184610d11565b90509392505050565b6000602082019050818103600083015261100481610e43565b9050919050565b6000602082019050818103600083015261102481610e83565b9050919050565b6000602082019050818103600083015261104481610ec3565b9050919050565b600060208201905081810360008301526110658184610f03565b905092915050565b6000604051905081810181811067ffffffffffffffff8211171561109057600080fd5b8060405250919050565b600067ffffffffffffffff8211156110b157600080fd5b601f19601f8301169050602081019050919050565b60008160005260206000209050919050565b600081519050919050565b600081519050919050565b600082825260208201905092915050565b600082825260208201905092915050565b600082825260208201905092915050565b600081905092915050565b60008115159050919050565b82818337600083830152505050565b60005b8381101561116557808201518184015260208101905061114a565b83811115611174576000848401525b50505050565b6000601f19601f830116905091905056fea265627a7a723058203f108a36e0b87ed7b7f46c518beb59d58677133cb43937bb97387ed0ed5b52646c6578706572696d656e74616cf50037",
  "source": "pragma solidity 0.5.6;\npragma experimental ABIEncoderV2;\n\n \nimport './DIDUtils.sol';  \nimport './CredentialStorage.sol';\n\n\n/**\n * @title DidLedger\n * @dev This contract is credential storage implementation\n */\n\n //did:kt:0d82ec18df5395bf2ca7611f0648bfc1c935bdd1773c1bb411c42f23318ba9ab\n //did:kt:1111ec18df5395bf2ca7611f0648bfc1c935bdd1773c1bb411c42f23318ba9ab\ncontract CredentialManagement is CredentialStorage {\n\n    modifier checkExistVC(string memory cid){\n        require(vcState[cid] == CredentialState.None,\"Already Exists Document\");\n        _;\n    }\n\n    modifier checkActiveVC(string memory cid){\n        require(vcState[cid] == CredentialState.Active,\"VC None or Deactivated\");\n        _;\n    }\n\n    modifier checkAuthority(string memory did, string memory cid){\n        require(DIDUtils.equalString( vcs[cid].owner , did) || DIDUtils.equalString( vcs[cid].issuer , did) ,\"Not The Owner\");\n        _;\n        \n    }\n\n    function register(\n        string memory uDid,\n        string memory iDid,\n        string memory cid,\n        string memory ciid) public \n        checkExistVC(cid)\n        returns(string memory)\n    {\n        vcs[cid].id = cid;\n        vcs[cid].iid = ciid;\n        vcs[cid].owner = uDid;\n        vcs[cid].issuer = iDid;\n        vcState[cid] = CredentialState.Active;\n    }\n\n    function getVC(\n        string memory cid,\n        string memory uDid) public view \n        checkAuthority(uDid,cid) checkActiveVC(cid)\n        returns(Credential memory) \n    {\n        Credential memory vc = vcs[cid];\n        return vc;\n    }\n\n    function revoke(\n        string memory cid,\n        string memory iDid) public \n        checkAuthority(iDid,cid) checkActiveVC(cid)\n    {\n        vcState[cid] = CredentialState.Deactivated;\n    }\n\n\n}\n\n//수정본",
  "sourcePath": "/home/pslab154/project/did-registry-dev/contracts/CredentialManagement.sol",
  "compiler": {
    "name": "solc",
    "version": "0.5.6+commit.b259423e.Emscripten.clang"
  },
  "schemaVersion": "2.0.2",
  "updatedAt": "2022-04-20T13:45:09.214Z"
}