{
  "contractName": "DIDLedger",
  "abi": [
    {
      "constant": true,
      "inputs": [
        {
          "name": "",
          "type": "string"
        }
      ],
      "name": "nonce",
      "outputs": [
        {
          "name": "",
          "type": "uint256"
        }
      ],
      "payable": false,
      "stateMutability": "view",
      "type": "function"
    },
    {
      "constant": false,
      "inputs": [
        {
          "name": "userInfo",
          "type": "string"
        }
      ],
      "name": "create",
      "outputs": [
        {
          "name": "did",
          "type": "string"
        }
      ],
      "payable": false,
      "stateMutability": "nonpayable",
      "type": "function"
    },
    {
      "constant": true,
      "inputs": [
        {
          "name": "did",
          "type": "string"
        }
      ],
      "name": "getDocument",
      "outputs": [
        {
          "components": [
            {
              "name": "id",
              "type": "string"
            },
            {
              "name": "contexts",
              "type": "string[]"
            },
            {
              "components": [
                {
                  "name": "id",
                  "type": "string"
                },
                {
                  "name": "keyType",
                  "type": "string"
                },
                {
                  "name": "pubKeyData",
                  "type": "string"
                },
                {
                  "name": "disable",
                  "type": "bool"
                }
              ],
              "name": "publicKeys",
              "type": "tuple[]"
            },
            {
              "name": "credentials",
              "type": "string[]"
            }
          ],
          "name": "",
          "type": "tuple"
        }
      ],
      "payable": false,
      "stateMutability": "view",
      "type": "function"
    },
    {
      "constant": false,
      "inputs": [
        {
          "name": "did",
          "type": "string"
        },
        {
          "name": "pubKey",
          "type": "string"
        }
      ],
      "name": "addPubKey",
      "outputs": [],
      "payable": false,
      "stateMutability": "nonpayable",
      "type": "function"
    },
    {
      "constant": false,
      "inputs": [
        {
          "name": "did",
          "type": "string"
        },
        {
          "name": "addr",
          "type": "address"
        }
      ],
      "name": "addAddrKey",
      "outputs": [],
      "payable": false,
      "stateMutability": "nonpayable",
      "type": "function"
    },
    {
      "constant": false,
      "inputs": [
        {
          "name": "did",
          "type": "string"
        },
        {
          "name": "scvID",
          "type": "string"
        },
        {
          "name": "scvType",
          "type": "string"
        },
        {
          "name": "scvEndpoint",
          "type": "string"
        }
      ],
      "name": "addService",
      "outputs": [],
      "payable": false,
      "stateMutability": "nonpayable",
      "type": "function"
    }
  ],
  "bytecode": "0x608060405234801561001057600080fd5b5061250c806100206000396000f3fe608060405234801561001057600080fd5b506004361061007f576000357c0100000000000000000000000000000000000000000000000000000000900480630187660f146100845780634349c9f2146100a05780637ccb6a64146100bc578063b6a46b3b146100ec578063e81ee7401461011c578063fc14e4ee14610138575b600080fd5b61009e60048036036100999190810190611b46565b610168565b005b6100ba60048036036100b59190810190611af2565b610176565b005b6100d660048036036100d19190810190611a70565b610184565b6040516100e391906121e6565b60405180910390f35b61010660048036036101019190810190611a70565b6107e5565b60405161011391906120ab565b60405180910390f35b61013660048036036101319190810190611bb2565b610d76565b005b610152600480360361014d9190810190611a2f565b610d88565b60405161015f9190612208565b60405180910390f35b6101728282610db6565b5050565b6101808282611107565b5050565b61018c611741565b8173__DIDUtils______________________________63d06c84df826040518263ffffffff167c01000000000000000000000000000000000000000000000000000000000281526004016101e091906120cd565b60206040518083038186803b1580156101f857600080fd5b505af415801561020c573d6000803e3d6000fd5b505050506040513d601f19601f820116820180604052506102309190810190611a06565b61026f576040517f08c379a000000000000000000000000000000000000000000000000000000000815260040161026690612186565b60405180910390fd5b610277611741565b600084604051610287919061205e565b9081526020016040518091039020604051806080016040529081600082018054600181600116156101000203166002900480601f0160208091040260200160405190810160405280929190818152602001828054600181600116156101000203166002900480156103395780601f1061030e57610100808354040283529160200191610339565b820191906000526020600020905b81548152906001019060200180831161031c57829003601f168201915b5050505050815260200160018201805480602002602001604051908101604052809291908181526020016000905b82821015610423578382906000526020600020018054600181600116156101000203166002900480601f01602080910402602001604051908101604052809291908181526020018280546001816001161561010002031660029004801561040f5780601f106103e45761010080835404028352916020019161040f565b820191906000526020600020905b8154815290600101906020018083116103f257829003601f168201915b505050505081526020019060010190610367565b50505050815260200160028201805480602002602001604051908101604052809291908181526020016000905b828210156106835783829060005260206000209060040201604051806080016040529081600082018054600181600116156101000203166002900480601f01602080910402602001604051908101604052809291908181526020018280546001816001161561010002031660029004801561050c5780601f106104e15761010080835404028352916020019161050c565b820191906000526020600020905b8154815290600101906020018083116104ef57829003601f168201915b50505050508152602001600182018054600181600116156101000203166002900480601f0160208091040260200160405190810160405280929190818152602001828054600181600116156101000203166002900480156105ae5780601f10610583576101008083540402835291602001916105ae565b820191906000526020600020905b81548152906001019060200180831161059157829003601f168201915b50505050508152602001600282018054600181600116156101000203166002900480601f0160208091040260200160405190810160405280929190818152602001828054600181600116156101000203166002900480156106505780601f1061062557610100808354040283529160200191610650565b820191906000526020600020905b81548152906001019060200180831161063357829003601f168201915b505050505081526020016003820160009054906101000a900460ff16151515158152505081526020019060010190610450565b50505050815260200160038201805480602002602001604051908101604052809291908181526020016000905b8282101561076c578382906000526020600020018054600181600116156101000203166002900480601f0160208091040260200160405190810160405280929190818152602001828054600181600116156101000203166002900480156107585780601f1061072d57610100808354040283529160200191610758565b820191906000526020600020905b81548152906001019060200180831161073b57829003601f168201915b5050505050815260200190600101906106b0565b5050505081525050905060008090505b8160400151518110156107da578160400151818151811061079957fe5b602002602001015160600151156107cd57816040015181815181106107ba57fe5b602002602001016107c9611769565b8152505b808060010191505061077c565b508092505050919050565b606081606073__DIDUtils______________________________63e948fc46836040518263ffffffff167c010000000000000000000000000000000000000000000000000000000002815260040161083d91906120cd565b60006040518083038186803b15801561085557600080fd5b505af4158015610869573d6000803e3d6000fd5b505050506040513d6000823e3d601f19601f820116820180604052506108929190810190611ab1565b9050600060028111156108a157fe5b6001826040516108b1919061205e565b908152602001604051809103902060009054906101000a900460ff1660028111156108d857fe5b14610918576040517f08c379a000000000000000000000000000000000000000000000000000000000815260040161090f906121c6565b60405180910390fd5b6040518060600160405280602881526020016124ab60289139935073__DIDUtils______________________________63e948fc46856040518263ffffffff167c010000000000000000000000000000000000000000000000000000000002815260040161098691906120cd565b60006040518083038186803b15801561099e57600080fd5b505af41580156109b2573d6000803e3d6000fd5b505050506040513d6000823e3d601f19601f820116820180604052506109db9190810190611ab1565b9250606073__DIDUtils______________________________63a4d1444c8560016040518363ffffffff167c0100000000000000000000000000000000000000000000000000000000028152600401610a359291906120ef565b60006040518083038186803b158015610a4d57600080fd5b505af4158015610a61573d6000803e3d6000fd5b505050506040513d6000823e3d601f19601f82011682018060405250610a8a9190810190611ab1565b9050606073__DIDUtils______________________________63bbec1843336040518263ffffffff167c0100000000000000000000000000000000000000000000000000000000028152600401610ae19190612090565b60006040518083038186803b158015610af957600080fd5b505af4158015610b0d573d6000803e3d6000fd5b505050506040513d6000823e3d601f19601f82011682018060405250610b369190810190611ab1565b905060606040518060400160405280602081526020017f4563647361536563703235366b315265636f766572794d6574686f64323032308152509050610b7a611793565b6040518060800160405280858152602001838152602001848152602001600015158152509050600087604051610bb0919061205e565b90815260200160405180910390206001018060018154018082558091505090600182039060005260206000200160006040518060400160405280601c81526020017f68747470733a2f2f7777772e77332e6f72672f6e732f6469642f76310000000081525090919091509080519060200190610c2d9291906117bd565b505086600088604051610c40919061205e565b90815260200160405180910390206000019080519060200190610c649291906117bd565b50600087604051610c75919061205e565b908152602001604051809103902060020181908060018154018082558091505090600182039060005260206000209060040201600090919290919091506000820151816000019080519060200190610cce92919061183d565b506020820151816001019080519060200190610ceb92919061183d565b506040820151816002019080519060200190610d0892919061183d565b5060608201518160030160006101000a81548160ff02191690831515021790555050505060018088604051610d3d919061205e565b908152602001604051809103902060006101000a81548160ff02191690836002811115610d6657fe5b0217905550505050505050919050565b610d8284848484611522565b50505050565b6002818051602081018201805184825260208301602085012081835280955050505050506000915090505481565b8173__DIDUtils______________________________63d06c84df826040518263ffffffff167c0100000000000000000000000000000000000000000000000000000000028152600401610e0a91906120cd565b60206040518083038186803b158015610e2257600080fd5b505af4158015610e36573d6000803e3d6000fd5b505050506040513d601f19601f82011682018060405250610e5a9190810190611a06565b610e99576040517f08c379a0000000000000000000000000000000000000000000000000000000008152600401610e9090612186565b60405180910390fd5b8260016002811115610ea757fe5b600182604051610eb7919061205e565b908152602001604051809103902060009054906101000a900460ff166002811115610ede57fe5b14610f1e576040517f08c379a0000000000000000000000000000000000000000000000000000000008152600401610f15906121a6565b60405180910390fd5b60008085604051610f2f919061205e565b9081526020016040518091039020600201805490509050606073__DIDUtils______________________________63a4d1444c87600185016040518363ffffffff167c0100000000000000000000000000000000000000000000000000000000028152600401610fa0929190612156565b60006040518083038186803b158015610fb857600080fd5b505af4158015610fcc573d6000803e3d6000fd5b505050506040513d6000823e3d601f19601f82011682018060405250610ff59190810190611ab1565b9050606060405180606001604052806021815260200161248a602191399050600087604051611024919061205e565b90815260200160405180910390206002016040518060800160405280848152602001838152602001888152602001600015158152509080600181540180825580915050906001820390600052602060002090600402016000909192909190915060008201518160000190805190602001906110a092919061183d565b5060208201518160010190805190602001906110bd92919061183d565b5060408201518160020190805190602001906110da92919061183d565b5060608201518160030160006101000a81548160ff02191690831515021790555050505050505050505050565b8173__DIDUtils______________________________63d06c84df826040518263ffffffff167c010000000000000000000000000000000000000000000000000000000002815260040161115b91906120cd565b60206040518083038186803b15801561117357600080fd5b505af4158015611187573d6000803e3d6000fd5b505050506040513d601f19601f820116820180604052506111ab9190810190611a06565b6111ea576040517f08c379a00000000000000000000000000000000000000000000000000000000081526004016111e190612186565b60405180910390fd5b82600160028111156111f857fe5b600182604051611208919061205e565b908152602001604051809103902060009054906101000a900460ff16600281111561122f57fe5b1461126f576040517f08c379a0000000000000000000000000000000000000000000000000000000008152600401611266906121a6565b60405180910390fd5b60008085604051611280919061205e565b9081526020016040518091039020600201805490509050606073__DIDUtils______________________________63a4d1444c87600185016040518363ffffffff167c01000000000000000000000000000000000000000000000000000000000281526004016112f1929190612156565b60006040518083038186803b15801561130957600080fd5b505af415801561131d573d6000803e3d6000fd5b505050506040513d6000823e3d601f19601f820116820180604052506113469190810190611ab1565b905060606040518060400160405280602081526020017f4563647361536563703235366b315265636f766572794d6574686f64323032308152509050606073__DIDUtils______________________________63bbec1843886040518263ffffffff167c01000000000000000000000000000000000000000000000000000000000281526004016113d79190612075565b60006040518083038186803b1580156113ef57600080fd5b505af4158015611403573d6000803e3d6000fd5b505050506040513d6000823e3d601f19601f8201168201806040525061142c9190810190611ab1565b905060008860405161143e919061205e565b90815260200160405180910390206002016040518060800160405280858152602001848152602001838152602001600015158152509080600181540180825580915050906001820390600052602060002090600402016000909192909190915060008201518160000190805190602001906114ba92919061183d565b5060208201518160010190805190602001906114d792919061183d565b5060408201518160020190805190602001906114f492919061183d565b5060608201518160030160006101000a81548160ff0219169083151502179055505050505050505050505050565b8373__DIDUtils______________________________63d06c84df826040518263ffffffff167c010000000000000000000000000000000000000000000000000000000002815260040161157691906120cd565b60206040518083038186803b15801561158e57600080fd5b505af41580156115a2573d6000803e3d6000fd5b505050506040513d601f19601f820116820180604052506115c69190810190611a06565b611605576040517f08c379a00000000000000000000000000000000000000000000000000000000081526004016115fc90612186565b60405180910390fd5b846001600281111561161357fe5b600182604051611623919061205e565b908152602001604051809103902060009054906101000a900460ff16600281111561164a57fe5b1461168a576040517f08c379a0000000000000000000000000000000000000000000000000000000008152600401611681906121a6565b60405180910390fd5b606073__DIDUtils______________________________63b01bd81788886040518363ffffffff167c01000000000000000000000000000000000000000000000000000000000281526004016116e192919061211f565b60006040518083038186803b1580156116f957600080fd5b505af415801561170d573d6000803e3d6000fd5b505050506040513d6000823e3d601f19601f820116820180604052506117369190810190611ab1565b905050505050505050565b6040518060800160405280606081526020016060815260200160608152602001606081525090565b60405180608001604052806060815260200160608152602001606081526020016000151581525090565b60405180608001604052806060815260200160608152602001606081526020016000151581525090565b828054600181600116156101000203166002900490600052602060002090601f016020900481019282601f106117fe57805160ff191683800117855561182c565b8280016001018555821561182c579182015b8281111561182b578251825591602001919060010190611810565b5b50905061183991906118bd565b5090565b828054600181600116156101000203166002900490600052602060002090601f016020900481019282601f1061187e57805160ff19168380011785556118ac565b828001600101855582156118ac579182015b828111156118ab578251825591602001919060010190611890565b5b5090506118b991906118bd565b5090565b6118df91905b808211156118db5760008160009055506001016118c3565b5090565b90565b60006118ee82356123b0565b905092915050565b600061190282516123c2565b905092915050565b600082601f83011261191b57600080fd5b813561192e61192982612250565b612223565b9150808252602083016020830185838301111561194a57600080fd5b611955838284612436565b50505092915050565b600082601f83011261196f57600080fd5b813561198261197d8261227c565b612223565b9150808252602083016020830185838301111561199e57600080fd5b6119a9838284612436565b50505092915050565b600082601f8301126119c357600080fd5b81516119d66119d18261227c565b612223565b915080825260208301602083018583830111156119f257600080fd5b6119fd838284612445565b50505092915050565b600060208284031215611a1857600080fd5b6000611a26848285016118f6565b91505092915050565b600060208284031215611a4157600080fd5b600082013567ffffffffffffffff811115611a5b57600080fd5b611a678482850161190a565b91505092915050565b600060208284031215611a8257600080fd5b600082013567ffffffffffffffff811115611a9c57600080fd5b611aa88482850161195e565b91505092915050565b600060208284031215611ac357600080fd5b600082015167ffffffffffffffff811115611add57600080fd5b611ae9848285016119b2565b91505092915050565b60008060408385031215611b0557600080fd5b600083013567ffffffffffffffff811115611b1f57600080fd5b611b2b8582860161195e565b9250506020611b3c858286016118e2565b9150509250929050565b60008060408385031215611b5957600080fd5b600083013567ffffffffffffffff811115611b7357600080fd5b611b7f8582860161195e565b925050602083013567ffffffffffffffff811115611b9c57600080fd5b611ba88582860161195e565b9150509250929050565b60008060008060808587031215611bc857600080fd5b600085013567ffffffffffffffff811115611be257600080fd5b611bee8782880161195e565b945050602085013567ffffffffffffffff811115611c0b57600080fd5b611c178782880161195e565b935050604085013567ffffffffffffffff811115611c3457600080fd5b611c408782880161195e565b925050606085013567ffffffffffffffff811115611c5d57600080fd5b611c698782880161195e565b91505092959194509250565b6000611c818383611e5e565b905092915050565b6000611c958383611fcf565b905092915050565b611ca6816123ee565b82525050565b611cb581612368565b82525050565b6000611cc6826122c2565b611cd08185612308565b935083602082028501611ce2856122a8565b60005b84811015611d1b578383038852611cfd838351611c75565b9250611d08826122ee565b9150602088019750600181019050611ce5565b508196508694505050505092915050565b6000611d37826122cd565b611d418185612319565b935083602082028501611d53856122b5565b60005b84811015611d8c578383038852611d6e838351611c89565b9250611d79826122fb565b9150602088019750600181019050611d56565b508196508694505050505092915050565b611da68161237a565b82525050565b611db581612400565b82525050565b6000611dc6826122e3565b611dd0818561233b565b9350611de0818560208601612445565b611de981612478565b840191505092915050565b6000611dff826122e3565b611e09818561234c565b9350611e19818560208601612445565b611e2281612478565b840191505092915050565b6000611e38826122e3565b611e42818561235d565b9350611e52818560208601612445565b80840191505092915050565b6000611e69826122d8565b611e73818561232a565b9350611e83818560208601612445565b611e8c81612478565b840191505092915050565b6000611ea4600e8361233b565b91507f496e76616c696420666f726d61740000000000000000000000000000000000006000830152602082019050919050565b6000611ee460138361233b565b91507f4e6f6e65206f72204465616374697661746564000000000000000000000000006000830152602082019050919050565b6000611f2460108361233b565b91507f416c726561647920446f63756d656e74000000000000000000000000000000006000830152602082019050919050565b60006080830160008301518482036000860152611f748282611e5e565b91505060208301518482036020860152611f8e8282611cbb565b91505060408301518482036040860152611fa88282611d2c565b91505060608301518482036060860152611fc28282611cbb565b9150508091505092915050565b60006080830160008301518482036000860152611fec8282611e5e565b915050602083015184820360208601526120068282611e5e565b915050604083015184820360408601526120208282611e5e565b91505060608301516120356060860182611d9d565b508091505092915050565b612049816123a6565b82525050565b612058816123a6565b82525050565b600061206a8284611e2d565b915081905092915050565b600060208201905061208a6000830184611cac565b92915050565b60006020820190506120a56000830184611c9d565b92915050565b600060208201905081810360008301526120c58184611dbb565b905092915050565b600060208201905081810360008301526120e78184611df4565b905092915050565b600060408201905081810360008301526121098185611df4565b90506121186020830184611dac565b9392505050565b600060408201905081810360008301526121398185611df4565b9050818103602083015261214d8184611df4565b90509392505050565b600060408201905081810360008301526121708185611df4565b905061217f602083018461204f565b9392505050565b6000602082019050818103600083015261219f81611e97565b9050919050565b600060208201905081810360008301526121bf81611ed7565b9050919050565b600060208201905081810360008301526121df81611f17565b9050919050565b600060208201905081810360008301526122008184611f57565b905092915050565b600060208201905061221d6000830184612040565b92915050565b6000604051905081810181811067ffffffffffffffff8211171561224657600080fd5b8060405250919050565b600067ffffffffffffffff82111561226757600080fd5b601f19601f8301169050602081019050919050565b600067ffffffffffffffff82111561229357600080fd5b601f19601f8301169050602081019050919050565b6000602082019050919050565b6000602082019050919050565b600081519050919050565b600081519050919050565b600081519050919050565b600081519050919050565b6000602082019050919050565b6000602082019050919050565b600082825260208201905092915050565b600082825260208201905092915050565b600082825260208201905092915050565b600082825260208201905092915050565b600082825260208201905092915050565b600081905092915050565b600061237382612386565b9050919050565b60008115159050919050565b600073ffffffffffffffffffffffffffffffffffffffff82169050919050565b6000819050919050565b60006123bb826123ce565b9050919050565b60008115159050919050565b600073ffffffffffffffffffffffffffffffffffffffff82169050919050565b60006123f982612412565b9050919050565b600061240b826123a6565b9050919050565b600061241d82612424565b9050919050565b600061242f82612386565b9050919050565b82818337600083830152505050565b60005b83811015612463578082015181840152602081019050612448565b83811115612472576000848401525b50505050565b6000601f19601f830116905091905056fe4563647361536563703235366b31566572696669636174696f6e4b65793230313936663433303361613663656132623066616534363266613963633739323434336330336130363039a265627a7a72305820e96e71fb71cb5b221ebfa7c08581b96dab82b68061277c914984b8bd8176a4f06c6578706572696d656e74616cf50037",
  "source": "pragma solidity 0.5.6;\npragma experimental ABIEncoderV2;\n\nimport './DIDStorage.sol';\nimport './DIDUtils.sol';\n\n//#orign : \n/**\n * @title DidLedger\n * @dev This contract is did document storage implementation\n */\n// \"did:kt:6f4303aa6cea2b0fae462fa9cc792443c03a0609\"\ncontract DIDLedger is DIDStorage {\n\n    modifier checkExistDom(string memory userInfo){\n        string memory did = DIDUtils.genDid(userInfo);\n//#orign        string memory did = DIDUtils.genDid(msg.sender);\n        //1-1-1.  did  ,     **\n        require(didState[did] == DIDState.None,\"Already Document\");\n        _;\n    }\n\n    modifier checkActiveDom(string memory did){\n        require(didState[did] == DIDState.Active,\"None or Deactivated\");\n        _;\n    }\n\n    modifier verifyFormat(string memory did){\n        require(DIDUtils.verifyDidFormat(did),'Invalid format');\n        _;\n    }\n    \n    // 1. did  did \n    // 1-1. did    checkExistDom \n    function create(\n        string memory userInfo) public \n        checkExistDom(userInfo)\n        returns(string memory did)\n    {\n        //1-1-2.  did  , did   did \n        userInfo = '6f4303aa6cea2b0fae462fa9cc792443c03a0609';\n        did = DIDUtils.genDid(userInfo);\n        string memory keyID = DIDUtils.genPublicKeyID(did,1);\n        string memory addrKey = DIDUtils.genAddrKey(msg.sender);\n        string memory keyType = 'EcdsaSecp256k1RecoveryMethod2020';\n        PublicKey memory defaultKey = PublicKey(keyID,keyType,addrKey,false);\n                                   // https://www.w3.org/ns/did ->  \n        documents[did].contexts.push(\"https://www.w3.org/ns/did/v1\");\n        documents[did].id = did;\n        documents[did].publicKeys.push(defaultKey);\n        didState[did] = DIDState.Active;\n    }\n\n    function getDocument(string memory did) public view \n        verifyFormat(did) \n        returns(Document memory) \n    {\n        Document memory dom = documents[did];\n        // for(uint256 i=0;i<dom.services.length;i++){\n        //     if(dom.services[i].disable) delete dom.services[i];\n        // }\n        for(uint256 i=0;i<dom.publicKeys.length;i++){\n            if(dom.publicKeys[i].disable) delete dom.publicKeys[i];\n        }\n        return  dom;\n    }\n\n\n    //'EcdsaSecp256k1VerificationKey2019'\n\n    function addPubKey(\n        string memory did,\n        string memory pubKey) public \n    {\n        _addPubKey(did,pubKey);        \n    }\n    \n    \n    function _addPubKey(\n        string memory did,\n        string memory pubKey) internal \n        verifyFormat(did) checkActiveDom(did)\n    {\n        uint256 index = documents[did].publicKeys.length;\n        string memory keyID = DIDUtils.genPublicKeyID(did,index+1);\n        string memory keyType = 'EcdsaSecp256k1VerificationKey2019';\n        documents[did].publicKeys.push(PublicKey(keyID,keyType,pubKey,false));\n    }\n    \n    //'EcdsaSecp256k1RecoveryMethod2020'\n    \n    function addAddrKey(\n        string memory did,\n        address addr) public\n    {\n        _addAddrKey(did,addr);    \n    }\n   \n    function _addAddrKey(\n        string memory did,\n        address addr) internal \n        verifyFormat(did) checkActiveDom(did)\n    {\n        uint256 index = documents[did].publicKeys.length;\n        string memory keyID = DIDUtils.genPublicKeyID(did,index+1);\n        string memory keyType = 'EcdsaSecp256k1RecoveryMethod2020';\n        string memory keyAddr = DIDUtils.genAddrKey(addr);\n        documents[did].publicKeys.push(PublicKey(keyID,keyType,keyAddr,false));  \n    }\n\n    // add service\n    function addService(\n        string memory did,\n        string memory scvID,\n        string memory scvType,\n        string memory scvEndpoint) public \n    {\n        _addService(did, scvID, scvType, scvEndpoint);    \n    }\n\n\n    function _addService(\n        string memory did,\n        string memory scvID,\n        string memory scvType,\n        string memory scvEndpoint)internal \n        verifyFormat(did) checkActiveDom(did)\n    {\n        string memory id =  DIDUtils.genFragment(did,scvID);\n        //documents[did].services.push(Service(id,scvType,scvEndpoint,false));\n    }\n\n\n    function recoverSignature(\n        string memory did, \n        string memory fType, \n        uint8 sigV, bytes32 sigR, bytes32 sigS) internal \n        returns(address)\n    {\n        bytes32 hash =  DIDUtils.genSignHash(fType, address(this), nonce[did], did);\n        address signer = ecrecover(hash, sigV, sigR, sigS);\n        nonce[did]++;\n        return signer;\n    }\n\n}",
  "sourcePath": "/home/pslab154/project/did-registry-dev/contracts/DIDLedger.sol",
  "compiler": {
    "name": "solc",
    "version": "0.5.6+commit.b259423e.Emscripten.clang"
  },
  "schemaVersion": "2.0.2",
  "updatedAt": "2022-04-07T03:46:24.686Z"
}