{
  "contractName": "DIDLedger",
  "abi": [
    {
      "constant": true,
      "inputs": [
        {
          "name": "",
          "type": "string"
        }
      ],
      "name": "nonce",
      "outputs": [
        {
          "name": "",
          "type": "uint256"
        }
      ],
      "payable": false,
      "stateMutability": "view",
      "type": "function"
    },
    {
      "constant": false,
      "inputs": [
        {
          "name": "userInfo",
          "type": "string"
        }
      ],
      "name": "create",
      "outputs": [
        {
          "name": "did",
          "type": "string"
        }
      ],
      "payable": false,
      "stateMutability": "nonpayable",
      "type": "function"
    },
    {
      "constant": true,
      "inputs": [
        {
          "name": "did",
          "type": "string"
        }
      ],
      "name": "getDocument",
      "outputs": [
        {
          "components": [
            {
              "name": "id",
              "type": "string"
            },
            {
              "name": "contexts",
              "type": "string[]"
            },
            {
              "components": [
                {
                  "name": "id",
                  "type": "string"
                },
                {
                  "name": "keyType",
                  "type": "string"
                },
                {
                  "name": "pubKeyData",
                  "type": "string"
                },
                {
                  "name": "disable",
                  "type": "bool"
                }
              ],
              "name": "publicKeys",
              "type": "tuple[]"
            },
            {
              "name": "credentials",
              "type": "string[]"
            }
          ],
          "name": "",
          "type": "tuple"
        }
      ],
      "payable": false,
      "stateMutability": "view",
      "type": "function"
    },
    {
      "constant": false,
      "inputs": [
        {
          "name": "did",
          "type": "string"
        },
        {
          "name": "pubKey",
          "type": "string"
        }
      ],
      "name": "addPubKey",
      "outputs": [],
      "payable": false,
      "stateMutability": "nonpayable",
      "type": "function"
    },
    {
      "constant": false,
      "inputs": [
        {
          "name": "did",
          "type": "string"
        },
        {
          "name": "addr",
          "type": "address"
        }
      ],
      "name": "addAddrKey",
      "outputs": [],
      "payable": false,
      "stateMutability": "nonpayable",
      "type": "function"
    },
    {
      "constant": false,
      "inputs": [
        {
          "name": "did",
          "type": "string"
        },
        {
          "name": "scvID",
          "type": "string"
        },
        {
          "name": "scvType",
          "type": "string"
        },
        {
          "name": "scvEndpoint",
          "type": "string"
        }
      ],
      "name": "addService",
      "outputs": [],
      "payable": false,
      "stateMutability": "nonpayable",
      "type": "function"
    }
  ],
  "bytecode": "0x608060405234801561001057600080fd5b506124c9806100206000396000f3fe608060405234801561001057600080fd5b506004361061007f576000357c0100000000000000000000000000000000000000000000000000000000900480630187660f146100845780634349c9f2146100a05780637ccb6a64146100bc578063b6a46b3b146100ec578063e81ee7401461011c578063fc14e4ee14610138575b600080fd5b61009e60048036036100999190810190611b2b565b610168565b005b6100ba60048036036100b59190810190611ad7565b610176565b005b6100d660048036036100d19190810190611a55565b610184565b6040516100e391906121cb565b60405180910390f35b61010660048036036101019190810190611a55565b6107e5565b6040516101139190612090565b60405180910390f35b61013660048036036101319190810190611b97565b610d5b565b005b610152600480360361014d9190810190611a14565b610d6d565b60405161015f91906121ed565b60405180910390f35b6101728282610d9b565b5050565b61018082826110ec565b5050565b61018c611726565b8173__DIDUtils______________________________63d06c84df826040518263ffffffff167c01000000000000000000000000000000000000000000000000000000000281526004016101e091906120b2565b60206040518083038186803b1580156101f857600080fd5b505af415801561020c573d6000803e3d6000fd5b505050506040513d601f19601f8201168201806040525061023091908101906119eb565b61026f576040517f08c379a00000000000000000000000000000000000000000000000000000000081526004016102669061216b565b60405180910390fd5b610277611726565b6000846040516102879190612043565b9081526020016040518091039020604051806080016040529081600082018054600181600116156101000203166002900480601f0160208091040260200160405190810160405280929190818152602001828054600181600116156101000203166002900480156103395780601f1061030e57610100808354040283529160200191610339565b820191906000526020600020905b81548152906001019060200180831161031c57829003601f168201915b5050505050815260200160018201805480602002602001604051908101604052809291908181526020016000905b82821015610423578382906000526020600020018054600181600116156101000203166002900480601f01602080910402602001604051908101604052809291908181526020018280546001816001161561010002031660029004801561040f5780601f106103e45761010080835404028352916020019161040f565b820191906000526020600020905b8154815290600101906020018083116103f257829003601f168201915b505050505081526020019060010190610367565b50505050815260200160028201805480602002602001604051908101604052809291908181526020016000905b828210156106835783829060005260206000209060040201604051806080016040529081600082018054600181600116156101000203166002900480601f01602080910402602001604051908101604052809291908181526020018280546001816001161561010002031660029004801561050c5780601f106104e15761010080835404028352916020019161050c565b820191906000526020600020905b8154815290600101906020018083116104ef57829003601f168201915b50505050508152602001600182018054600181600116156101000203166002900480601f0160208091040260200160405190810160405280929190818152602001828054600181600116156101000203166002900480156105ae5780601f10610583576101008083540402835291602001916105ae565b820191906000526020600020905b81548152906001019060200180831161059157829003601f168201915b50505050508152602001600282018054600181600116156101000203166002900480601f0160208091040260200160405190810160405280929190818152602001828054600181600116156101000203166002900480156106505780601f1061062557610100808354040283529160200191610650565b820191906000526020600020905b81548152906001019060200180831161063357829003601f168201915b505050505081526020016003820160009054906101000a900460ff16151515158152505081526020019060010190610450565b50505050815260200160038201805480602002602001604051908101604052809291908181526020016000905b8282101561076c578382906000526020600020018054600181600116156101000203166002900480601f0160208091040260200160405190810160405280929190818152602001828054600181600116156101000203166002900480156107585780601f1061072d57610100808354040283529160200191610758565b820191906000526020600020905b81548152906001019060200180831161073b57829003601f168201915b5050505050815260200190600101906106b0565b5050505081525050905060008090505b8160400151518110156107da578160400151818151811061079957fe5b602002602001015160600151156107cd57816040015181815181106107ba57fe5b602002602001016107c961174e565b8152505b808060010191505061077c565b508092505050919050565b606081606073__DIDUtils______________________________63e948fc46836040518263ffffffff167c010000000000000000000000000000000000000000000000000000000002815260040161083d91906120b2565b60006040518083038186803b15801561085557600080fd5b505af4158015610869573d6000803e3d6000fd5b505050506040513d6000823e3d601f19601f820116820180604052506108929190810190611a96565b9050600060028111156108a157fe5b6001826040516108b19190612043565b908152602001604051809103902060009054906101000a900460ff1660028111156108d857fe5b14610918576040517f08c379a000000000000000000000000000000000000000000000000000000000815260040161090f906121ab565b60405180910390fd5b73__DIDUtils______________________________63e948fc46856040518263ffffffff167c010000000000000000000000000000000000000000000000000000000002815260040161096b91906120b2565b60006040518083038186803b15801561098357600080fd5b505af4158015610997573d6000803e3d6000fd5b505050506040513d6000823e3d601f19601f820116820180604052506109c09190810190611a96565b9250606073__DIDUtils______________________________63a4d1444c8560016040518363ffffffff167c0100000000000000000000000000000000000000000000000000000000028152600401610a1a9291906120d4565b60006040518083038186803b158015610a3257600080fd5b505af4158015610a46573d6000803e3d6000fd5b505050506040513d6000823e3d601f19601f82011682018060405250610a6f9190810190611a96565b9050606073__DIDUtils______________________________63bbec1843336040518263ffffffff167c0100000000000000000000000000000000000000000000000000000000028152600401610ac69190612075565b60006040518083038186803b158015610ade57600080fd5b505af4158015610af2573d6000803e3d6000fd5b505050506040513d6000823e3d601f19601f82011682018060405250610b1b9190810190611a96565b905060606040518060400160405280602081526020017f4563647361536563703235366b315265636f766572794d6574686f64323032308152509050610b5f611778565b6040518060800160405280858152602001838152602001848152602001600015158152509050600087604051610b959190612043565b90815260200160405180910390206001018060018154018082558091505090600182039060005260206000200160006040518060400160405280601c81526020017f68747470733a2f2f7777772e77332e6f72672f6e732f6469642f76310000000081525090919091509080519060200190610c129291906117a2565b505086600088604051610c259190612043565b90815260200160405180910390206000019080519060200190610c499291906117a2565b50600087604051610c5a9190612043565b908152602001604051809103902060020181908060018154018082558091505090600182039060005260206000209060040201600090919290919091506000820151816000019080519060200190610cb3929190611822565b506020820151816001019080519060200190610cd0929190611822565b506040820151816002019080519060200190610ced929190611822565b5060608201518160030160006101000a81548160ff02191690831515021790555050505060018088604051610d229190612043565b908152602001604051809103902060006101000a81548160ff02191690836002811115610d4b57fe5b0217905550505050505050919050565b610d6784848484611507565b50505050565b6002818051602081018201805184825260208301602085012081835280955050505050506000915090505481565b8173__DIDUtils______________________________63d06c84df826040518263ffffffff167c0100000000000000000000000000000000000000000000000000000000028152600401610def91906120b2565b60206040518083038186803b158015610e0757600080fd5b505af4158015610e1b573d6000803e3d6000fd5b505050506040513d601f19601f82011682018060405250610e3f91908101906119eb565b610e7e576040517f08c379a0000000000000000000000000000000000000000000000000000000008152600401610e759061216b565b60405180910390fd5b8260016002811115610e8c57fe5b600182604051610e9c9190612043565b908152602001604051809103902060009054906101000a900460ff166002811115610ec357fe5b14610f03576040517f08c379a0000000000000000000000000000000000000000000000000000000008152600401610efa9061218b565b60405180910390fd5b60008085604051610f149190612043565b9081526020016040518091039020600201805490509050606073__DIDUtils______________________________63a4d1444c87600185016040518363ffffffff167c0100000000000000000000000000000000000000000000000000000000028152600401610f8592919061213b565b60006040518083038186803b158015610f9d57600080fd5b505af4158015610fb1573d6000803e3d6000fd5b505050506040513d6000823e3d601f19601f82011682018060405250610fda9190810190611a96565b9050606060405180606001604052806021815260200161246f6021913990506000876040516110099190612043565b9081526020016040518091039020600201604051806080016040528084815260200183815260200188815260200160001515815250908060018154018082558091505090600182039060005260206000209060040201600090919290919091506000820151816000019080519060200190611085929190611822565b5060208201518160010190805190602001906110a2929190611822565b5060408201518160020190805190602001906110bf929190611822565b5060608201518160030160006101000a81548160ff02191690831515021790555050505050505050505050565b8173__DIDUtils______________________________63d06c84df826040518263ffffffff167c010000000000000000000000000000000000000000000000000000000002815260040161114091906120b2565b60206040518083038186803b15801561115857600080fd5b505af415801561116c573d6000803e3d6000fd5b505050506040513d601f19601f8201168201806040525061119091908101906119eb565b6111cf576040517f08c379a00000000000000000000000000000000000000000000000000000000081526004016111c69061216b565b60405180910390fd5b82600160028111156111dd57fe5b6001826040516111ed9190612043565b908152602001604051809103902060009054906101000a900460ff16600281111561121457fe5b14611254576040517f08c379a000000000000000000000000000000000000000000000000000000000815260040161124b9061218b565b60405180910390fd5b600080856040516112659190612043565b9081526020016040518091039020600201805490509050606073__DIDUtils______________________________63a4d1444c87600185016040518363ffffffff167c01000000000000000000000000000000000000000000000000000000000281526004016112d692919061213b565b60006040518083038186803b1580156112ee57600080fd5b505af4158015611302573d6000803e3d6000fd5b505050506040513d6000823e3d601f19601f8201168201806040525061132b9190810190611a96565b905060606040518060400160405280602081526020017f4563647361536563703235366b315265636f766572794d6574686f64323032308152509050606073__DIDUtils______________________________63bbec1843886040518263ffffffff167c01000000000000000000000000000000000000000000000000000000000281526004016113bc919061205a565b60006040518083038186803b1580156113d457600080fd5b505af41580156113e8573d6000803e3d6000fd5b505050506040513d6000823e3d601f19601f820116820180604052506114119190810190611a96565b90506000886040516114239190612043565b908152602001604051809103902060020160405180608001604052808581526020018481526020018381526020016000151581525090806001815401808255809150509060018203906000526020600020906004020160009091929091909150600082015181600001908051906020019061149f929190611822565b5060208201518160010190805190602001906114bc929190611822565b5060408201518160020190805190602001906114d9929190611822565b5060608201518160030160006101000a81548160ff0219169083151502179055505050505050505050505050565b8373__DIDUtils______________________________63d06c84df826040518263ffffffff167c010000000000000000000000000000000000000000000000000000000002815260040161155b91906120b2565b60206040518083038186803b15801561157357600080fd5b505af4158015611587573d6000803e3d6000fd5b505050506040513d601f19601f820116820180604052506115ab91908101906119eb565b6115ea576040517f08c379a00000000000000000000000000000000000000000000000000000000081526004016115e19061216b565b60405180910390fd5b84600160028111156115f857fe5b6001826040516116089190612043565b908152602001604051809103902060009054906101000a900460ff16600281111561162f57fe5b1461166f576040517f08c379a00000000000000000000000000000000000000000000000000000000081526004016116669061218b565b60405180910390fd5b606073__DIDUtils______________________________63b01bd81788886040518363ffffffff167c01000000000000000000000000000000000000000000000000000000000281526004016116c6929190612104565b60006040518083038186803b1580156116de57600080fd5b505af41580156116f2573d6000803e3d6000fd5b505050506040513d6000823e3d601f19601f8201168201806040525061171b9190810190611a96565b905050505050505050565b6040518060800160405280606081526020016060815260200160608152602001606081525090565b60405180608001604052806060815260200160608152602001606081526020016000151581525090565b60405180608001604052806060815260200160608152602001606081526020016000151581525090565b828054600181600116156101000203166002900490600052602060002090601f016020900481019282601f106117e357805160ff1916838001178555611811565b82800160010185558215611811579182015b828111156118105782518255916020019190600101906117f5565b5b50905061181e91906118a2565b5090565b828054600181600116156101000203166002900490600052602060002090601f016020900481019282601f1061186357805160ff1916838001178555611891565b82800160010185558215611891579182015b82811115611890578251825591602001919060010190611875565b5b50905061189e91906118a2565b5090565b6118c491905b808211156118c05760008160009055506001016118a8565b5090565b90565b60006118d38235612395565b905092915050565b60006118e782516123a7565b905092915050565b600082601f83011261190057600080fd5b813561191361190e82612235565b612208565b9150808252602083016020830185838301111561192f57600080fd5b61193a83828461241b565b50505092915050565b600082601f83011261195457600080fd5b813561196761196282612261565b612208565b9150808252602083016020830185838301111561198357600080fd5b61198e83828461241b565b50505092915050565b600082601f8301126119a857600080fd5b81516119bb6119b682612261565b612208565b915080825260208301602083018583830111156119d757600080fd5b6119e283828461242a565b50505092915050565b6000602082840312156119fd57600080fd5b6000611a0b848285016118db565b91505092915050565b600060208284031215611a2657600080fd5b600082013567ffffffffffffffff811115611a4057600080fd5b611a4c848285016118ef565b91505092915050565b600060208284031215611a6757600080fd5b600082013567ffffffffffffffff811115611a8157600080fd5b611a8d84828501611943565b91505092915050565b600060208284031215611aa857600080fd5b600082015167ffffffffffffffff811115611ac257600080fd5b611ace84828501611997565b91505092915050565b60008060408385031215611aea57600080fd5b600083013567ffffffffffffffff811115611b0457600080fd5b611b1085828601611943565b9250506020611b21858286016118c7565b9150509250929050565b60008060408385031215611b3e57600080fd5b600083013567ffffffffffffffff811115611b5857600080fd5b611b6485828601611943565b925050602083013567ffffffffffffffff811115611b8157600080fd5b611b8d85828601611943565b9150509250929050565b60008060008060808587031215611bad57600080fd5b600085013567ffffffffffffffff811115611bc757600080fd5b611bd387828801611943565b945050602085013567ffffffffffffffff811115611bf057600080fd5b611bfc87828801611943565b935050604085013567ffffffffffffffff811115611c1957600080fd5b611c2587828801611943565b925050606085013567ffffffffffffffff811115611c4257600080fd5b611c4e87828801611943565b91505092959194509250565b6000611c668383611e43565b905092915050565b6000611c7a8383611fb4565b905092915050565b611c8b816123d3565b82525050565b611c9a8161234d565b82525050565b6000611cab826122a7565b611cb581856122ed565b935083602082028501611cc78561228d565b60005b84811015611d00578383038852611ce2838351611c5a565b9250611ced826122d3565b9150602088019750600181019050611cca565b508196508694505050505092915050565b6000611d1c826122b2565b611d2681856122fe565b935083602082028501611d388561229a565b60005b84811015611d71578383038852611d53838351611c6e565b9250611d5e826122e0565b9150602088019750600181019050611d3b565b508196508694505050505092915050565b611d8b8161235f565b82525050565b611d9a816123e5565b82525050565b6000611dab826122c8565b611db58185612320565b9350611dc581856020860161242a565b611dce8161245d565b840191505092915050565b6000611de4826122c8565b611dee8185612331565b9350611dfe81856020860161242a565b611e078161245d565b840191505092915050565b6000611e1d826122c8565b611e278185612342565b9350611e3781856020860161242a565b80840191505092915050565b6000611e4e826122bd565b611e58818561230f565b9350611e6881856020860161242a565b611e718161245d565b840191505092915050565b6000611e89600e83612320565b91507f496e76616c696420666f726d61740000000000000000000000000000000000006000830152602082019050919050565b6000611ec9601383612320565b91507f4e6f6e65206f72204465616374697661746564000000000000000000000000006000830152602082019050919050565b6000611f09601083612320565b91507f416c726561647920446f63756d656e74000000000000000000000000000000006000830152602082019050919050565b60006080830160008301518482036000860152611f598282611e43565b91505060208301518482036020860152611f738282611ca0565b91505060408301518482036040860152611f8d8282611d11565b91505060608301518482036060860152611fa78282611ca0565b9150508091505092915050565b60006080830160008301518482036000860152611fd18282611e43565b91505060208301518482036020860152611feb8282611e43565b915050604083015184820360408601526120058282611e43565b915050606083015161201a6060860182611d82565b508091505092915050565b61202e8161238b565b82525050565b61203d8161238b565b82525050565b600061204f8284611e12565b915081905092915050565b600060208201905061206f6000830184611c91565b92915050565b600060208201905061208a6000830184611c82565b92915050565b600060208201905081810360008301526120aa8184611da0565b905092915050565b600060208201905081810360008301526120cc8184611dd9565b905092915050565b600060408201905081810360008301526120ee8185611dd9565b90506120fd6020830184611d91565b9392505050565b6000604082019050818103600083015261211e8185611dd9565b905081810360208301526121328184611dd9565b90509392505050565b600060408201905081810360008301526121558185611dd9565b90506121646020830184612034565b9392505050565b6000602082019050818103600083015261218481611e7c565b9050919050565b600060208201905081810360008301526121a481611ebc565b9050919050565b600060208201905081810360008301526121c481611efc565b9050919050565b600060208201905081810360008301526121e58184611f3c565b905092915050565b60006020820190506122026000830184612025565b92915050565b6000604051905081810181811067ffffffffffffffff8211171561222b57600080fd5b8060405250919050565b600067ffffffffffffffff82111561224c57600080fd5b601f19601f8301169050602081019050919050565b600067ffffffffffffffff82111561227857600080fd5b601f19601f8301169050602081019050919050565b6000602082019050919050565b6000602082019050919050565b600081519050919050565b600081519050919050565b600081519050919050565b600081519050919050565b6000602082019050919050565b6000602082019050919050565b600082825260208201905092915050565b600082825260208201905092915050565b600082825260208201905092915050565b600082825260208201905092915050565b600082825260208201905092915050565b600081905092915050565b60006123588261236b565b9050919050565b60008115159050919050565b600073ffffffffffffffffffffffffffffffffffffffff82169050919050565b6000819050919050565b60006123a0826123b3565b9050919050565b60008115159050919050565b600073ffffffffffffffffffffffffffffffffffffffff82169050919050565b60006123de826123f7565b9050919050565b60006123f08261238b565b9050919050565b600061240282612409565b9050919050565b60006124148261236b565b9050919050565b82818337600083830152505050565b60005b8381101561244857808201518184015260208101905061242d565b83811115612457576000848401525b50505050565b6000601f19601f830116905091905056fe4563647361536563703235366b31566572696669636174696f6e4b657932303139a265627a7a72305820087d9721a23e4f7289867439d19a81c009181766c3a471083dd4d18c83ce66db6c6578706572696d656e74616cf50037",
  "source": "pragma solidity 0.5.6;\npragma experimental ABIEncoderV2;\n\nimport './DIDStorage.sol';\nimport './DIDUtils.sol';\n\n//#orign : \n/**\n * @title DidLedger\n * @dev This contract is did document storage implementation\n */\n// \"did:kt:6f4303aa6cea2b0fae462fa9cc792443c03a0609\"\ncontract DIDLedger is DIDStorage {\n\n    modifier checkExistDom(string memory userInfo){\n        string memory did = DIDUtils.genDid(userInfo);\n//#orign        string memory did = DIDUtils.genDid(msg.sender);\n        //1-1-1.  did  ,     **\n        require(didState[did] == DIDState.None,\"Already Document\");\n        _;\n    }\n\n    modifier checkActiveDom(string memory did){\n        require(didState[did] == DIDState.Active,\"None or Deactivated\");\n        _;\n    }\n\n    modifier verifyFormat(string memory did){\n        require(DIDUtils.verifyDidFormat(did),'Invalid format');\n        _;\n    }\n    \n    // 1. did  did \n    // 1-1. did    checkExistDom \n    function create(\n        string memory userInfo) public \n        checkExistDom(userInfo)\n        returns(string memory did)\n    {\n        //1-1-2.  did  , did   did \n        //userInfo = '6f4303aa6cea2b0fae462fa9cc792443c03a0609';\n        did = DIDUtils.genDid(userInfo);\n        string memory keyID = DIDUtils.genPublicKeyID(did,1);\n        string memory addrKey = DIDUtils.genAddrKey(msg.sender);\n        string memory keyType = 'EcdsaSecp256k1RecoveryMethod2020';\n        PublicKey memory defaultKey = PublicKey(keyID,keyType,addrKey,false);\n                                   // https://www.w3.org/ns/did ->  \n        documents[did].contexts.push(\"https://www.w3.org/ns/did/v1\");\n        documents[did].id = did;\n        documents[did].publicKeys.push(defaultKey);\n        didState[did] = DIDState.Active;\n    }\n\n    function getDocument(string memory did) public view \n        verifyFormat(did) \n        returns(Document memory) \n    {\n        Document memory dom = documents[did];\n        // for(uint256 i=0;i<dom.services.length;i++){\n        //     if(dom.services[i].disable) delete dom.services[i];\n        // }\n        for(uint256 i=0;i<dom.publicKeys.length;i++){\n            if(dom.publicKeys[i].disable) delete dom.publicKeys[i];\n        }\n        return  dom;\n    }\n\n\n    //'EcdsaSecp256k1VerificationKey2019'\n\n    function addPubKey(\n        string memory did,\n        string memory pubKey) public \n    {\n        _addPubKey(did,pubKey);        \n    }\n    \n    \n    function _addPubKey(\n        string memory did,\n        string memory pubKey) internal \n        verifyFormat(did) checkActiveDom(did)\n    {\n        uint256 index = documents[did].publicKeys.length;\n        string memory keyID = DIDUtils.genPublicKeyID(did,index+1);\n        string memory keyType = 'EcdsaSecp256k1VerificationKey2019';\n        documents[did].publicKeys.push(PublicKey(keyID,keyType,pubKey,false));\n    }\n    \n    //'EcdsaSecp256k1RecoveryMethod2020'\n    \n    function addAddrKey(\n        string memory did,\n        address addr) public\n    {\n        _addAddrKey(did,addr);    \n    }\n   \n    function _addAddrKey(\n        string memory did,\n        address addr) internal \n        verifyFormat(did) checkActiveDom(did)\n    {\n        uint256 index = documents[did].publicKeys.length;\n        string memory keyID = DIDUtils.genPublicKeyID(did,index+1);\n        string memory keyType = 'EcdsaSecp256k1RecoveryMethod2020';\n        string memory keyAddr = DIDUtils.genAddrKey(addr);\n        documents[did].publicKeys.push(PublicKey(keyID,keyType,keyAddr,false));  \n    }\n\n    // add service\n    function addService(\n        string memory did,\n        string memory scvID,\n        string memory scvType,\n        string memory scvEndpoint) public \n    {\n        _addService(did, scvID, scvType, scvEndpoint);    \n    }\n\n\n    function _addService(\n        string memory did,\n        string memory scvID,\n        string memory scvType,\n        string memory scvEndpoint)internal \n        verifyFormat(did) checkActiveDom(did)\n    {\n        string memory id =  DIDUtils.genFragment(did,scvID);\n        //documents[did].services.push(Service(id,scvType,scvEndpoint,false));\n    }\n\n\n    function recoverSignature(\n        string memory did, \n        string memory fType, \n        uint8 sigV, bytes32 sigR, bytes32 sigS) internal \n        returns(address)\n    {\n        bytes32 hash =  DIDUtils.genSignHash(fType, address(this), nonce[did], did);\n        address signer = ecrecover(hash, sigV, sigR, sigS);\n        nonce[did]++;\n        return signer;\n    }\n\n}",
  "sourcePath": "/home/pslab154/project/did-registry-dev/contracts/DIDLedger.sol",
  "compiler": {
    "name": "solc",
    "version": "0.5.6+commit.b259423e.Emscripten.clang"
  },
  "schemaVersion": "2.0.2",
  "updatedAt": "2022-04-11T07:13:48.517Z"
}