{
  "contractName": "DIDStorage",
  "abi": [
    {
      "constant": true,
      "inputs": [
        {
          "name": "",
          "type": "string"
        }
      ],
      "name": "nonce",
      "outputs": [
        {
          "name": "",
          "type": "uint256"
        }
      ],
      "payable": false,
      "stateMutability": "view",
      "type": "function"
    }
  ],
  "bytecode": "0x608060405234801561001057600080fd5b50610176806100206000396000f3fe608060405234801561001057600080fd5b5060043610610048576000357c010000000000000000000000000000000000000000000000000000000090048063fc14e4ee1461004d575b600080fd5b6101066004803603602081101561006357600080fd5b810190808035906020019064010000000081111561008057600080fd5b82018360208201111561009257600080fd5b803590602001918460018302840111640100000000831117156100b457600080fd5b91908080601f016020809104026020016040519081016040528093929190818152602001838380828437600081840152601f19601f82011690508083019250505050505050919291929050505061011c565b6040518082815260200191505060405180910390f35b600281805160208101820180518482526020830160208501208183528095505050505050600091509050548156fea165627a7a72305820f3d878b1b547fa4aa1c80a0b2655f0e871d2e1fb3550129b906dc4e4831e2edd0029",
  "source": "pragma solidity 0.5.6;\n\ncontract DIDStorage{\n\n    // mapping(string => Document[]) documents; //key: 신원인증고유갑, value: 분산id\n    // mapping(string => DIDState) didState;\n    // mapping(string => Service[]) services;\n    // mapping(string => uint) public nonce;\n\n    // enum DIDState {None, Active, Deactivated}\n\n    //     struct PublicKey{\n    //     string id;\n    //     string keyType;\n    //     string pubKeyData;\n    //     bool disable;\n    // }\n\n    // struct Document{\n    //     string[] contexts;  //\"https://www.w3.org/ns/did/v1\" 왜 배열이야 ?\n    //     string id;\n    //     PublicKey[] publicKeys;\n    //     string[] credentials;\n    // }\n\n    // struct Service{\n    //     string id;\n    //     PublicKey[] publicKeys;\n    //     string serviceType; //issuer, verifier\n    //     string endPoint;\n    //     bool disable;\n    // }\n\n\n\n    mapping(string => Document) documents;\n    mapping(string => DIDState) didState;\n    mapping(string => uint) public nonce;\n    \n    enum DIDState {None, Active, Deactivated}\n\n    struct PublicKey{\n        string id;\n        string keyType;\n        string pubKeyData;\n        bool disable;\n    }\n    \n    struct Service{\n        string id;\n        string serviceType;\n        string serviceEndPoint;\n        PublicKey[] publickeys;\n        bool disable;\n    }\n    \n    struct Document{\n        string id;\n        string[] contexts;  //\"https://www.w3.org/ns/did/v1\" 왜 배열이야 ?\n        PublicKey[] publicKeys;\n        string[] credentials;\n    }\n\n\n}\n",
  "sourcePath": "/home/pslab154/project/did-registry-dev/contracts/DIDStorage.sol",
  "compiler": {
    "name": "solc",
    "version": "0.5.6+commit.b259423e.Emscripten.clang"
  },
  "schemaVersion": "2.0.2",
  "updatedAt": "2022-04-11T07:13:48.512Z"
}